:100000000C9437000C94D8020C94D8020C94D802AB
:100010000C94D8020C94D8020C94D8020C94D802F8
:100020000C94D8020C94D8020C94D8020C94D802E8
:100030000C94D8020C94D8020C94D8020C94D802D8
:100040000C94D8020C94D8020C94D8020C94D802C8
:100050000C94D8020C94D8020C94D8020C94D802B8
:100060000C94D8020C94D8020100010680001124DF
:100070001FBECFEFD8E0DEBFCDBFE8E6F0E040E046
:1000800017C0B591A59135912591059107FD0CC03B
:1000900095918591EF01F92FE82F05900D92A21708
:1000A000B307D9F7FE0104C01D92A217B307E1F709
:1000B000ED36F40731F70E94E2000C94C402F89484
:0200C000FFCF70
:1000C20054656D70202020203A0048756D20202054
:0E00D20020203A00536F696C202020203A0055
:1000E00088B18B7F88B92FEF80EE90E0215080405F
:1000F0009040E1F700C0000088B1846088B987B102
:100100008B7F87B920EA2A95F1F78FE391E0019779
:10011000F1F700C000008FE391E00197F1F700C014
:10012000000087EC90E00197F1F700C00000329BDF
:10013000FECF1092040190E012C0329BFECF20EA65
:100140002A95F1F780910401880F80930401329B76
:1001500003C08160809304013299FECF9F5F983085
:1001600060F31092030190E012C0329BFECF80EA50
:100170008A95F1F780910301880F80930301329BE8
:1001800003C08160809303013299FECF9F5F983056
:1001900060F31092000190E012C0329BFECF20EA83
:1001A0002A95F1F780910001880F80930001329B1E
:1001B00003C08160809300013299FECF9F5F983029
:0401C00060F308954B
:1001C40088E08EBF8FEF8DBF2FEF80EE90E021503F
:1001D40080409040E1F700C000000E94CF020E94DE
:1001E40018020E9470000E949C0281E00E94460254
:1001F4008FE39FE10197F1F700C0000080910501B2
:10020400811105C00E94BA010E941E0104C00E940F
:10021400E9010E94590181E090910501911180E06A
:10022400809305019FEF2BE782E9915020408040A5
:08023400E1F700C00000D1CF8A
:10023C00CF93DF9300D0CDB7DEB7AE014E5F5F4FEB
:10024C00BE016F5F7F4F809104010E94AA028981D9
:10025C000E945F028A810E945F0280E20E945F021C
:10026C0085E20E945F0280EC0E9446020E948B0194
:10027C00AE014E5F5F4FBE016F5F7F4F80910001FB
:10028C000E94AA0289810E945F028A810E945F02F9
:10029C0080E20E945F0283E40E945F020F900F9045
:0602AC00DF91CF910895DF
:1002B200CF93DF9300D0CDB7DEB72091010130910B
:1002C2000201ADECBCEC0E948D0296958795969545
:1002D200879596958795AE014E5F5F4FBE016F5F22
:1002E2007F4F0E94AA0289810E945F028A810E9436
:1002F2005F0280E20E945F0285E20E945F0280EC60
:100302000E94460280E20E945F020F900F90DF91EE
:04031200CF910895EA
:100316001F93CF93DF93CDB7DEB72A970FB6F89426
:10032600DEBF0FBECDBF22EC30E040E08AE0F9012F
:10033600DE011196742F0E94B70210E003C00E94DE
:100346005F021F5FE1E0F0E0EC0FFD1FE10FF11D22
:1003560080818A33A1F70E945F022A960FB6F8942D
:0E036600DEBF0FBECDBFDF91CF911F91089576
:100374001F93CF93DF93CDB7DEB72A970FB6F894C8
:10038400DEBF0FBECDBF2CEC30E040E08AE0F901C7
:10039400DE011196742F0E94B70210E003C00E9480
:1003A4005F021F5FE1E0F0E0EC0FFD1FE10FF11DC4
:1003B40080818A33A1F70E945F022A960FB6F894CF
:0E03C400DEBF0FBECDBFDF91CF911F91089518
:1003D2001F93CF93DF93CDB7DEB72A970FB6F8946A
:1003E200DEBF0FBECDBF26ED30E040E08AE0F9016E
:1003F200DE011196742F0E94B70210E003C00E9422
:100402005F021F5FE1E0F0E0EC0FFD1FE10FF11D65
:1004120080818A33A1F70E945F022A960FB6F89470
:0E042200DEBF0FBECDBFDF91CF911F910895B9
:100430002FEF80E792E0215080409040E1F700C02C
:10044000000088E30E9446028FE19EE40197F1F7E5
:1004500000C0000088E30E94460287E592E0019711
:10046000F1F700C0000088E30E9446028CE00E9481
:10047000460286E00E94460281E00E9446028FE327
:0C0480009FE10197F1F700C00000089513
:10048C008BB988B18D7F88B985E08A95F1F700002A
:10049C0088B1816088B995E09A95F1F7000088B130
:1004AC008E7F88B98FE891E00197F1F700C00000CA
:0204BC000895A1
:1004BE008BB988B1826088B985E08A95F1F7000022
:1004CE0088B1816088B995E09A95F1F7000088B1FE
:1004DE008E7F88B98FE891E00197F1F700C0000098
:0204EE0008956F
:1004F0008770ECE7F0E09081907F892B8083EAE7BA
:10050000F0E080818064808380917A0086FDFCCF5A
:0A0510008091780090917900089521
:10051A00A29FB001B39FC001A39F700D811D11243A
:0E052A00911DB29F700D811D1124911D089529
:1005380080E480937C0087E880937A0083E00E94BF
:0C05480078029093020180930101089555
:1005540090E002C08A509F5F8A30E0F7905DFB0113
:0A0564009083805DFA018083089502
:10056E00992777FD05C005900D920197E1F7089543
:0A057E0001900D920197E1F7089536
:10058800EC010E94DD020E94DC02CE010E94DE0224
:06059800CE010E94DA0210
:10059E008FEF8AB984B18E7F84B987B1876087B9AE
:0205AE000895AE
:0405B0000C940000A7
:0405B4000E945F0042
:0205B8000895A4
:0205BA000895A2
:0205BC000895A0
:00000001FF
